{
  "contractName": "FileHash",
  "abi": [
    {
      "constant": true,
      "inputs": [
        {
          "name": "",
          "type": "bytes32"
        }
      ],
      "name": "hashArr",
      "outputs": [
        {
          "name": "",
          "type": "string"
        }
      ],
      "payable": false,
      "stateMutability": "view",
      "type": "function"
    },
    {
      "constant": false,
      "inputs": [
        {
          "name": "key",
          "type": "bytes32"
        }
      ],
      "name": "getHash",
      "outputs": [
        {
          "name": "",
          "type": "string"
        }
      ],
      "payable": false,
      "stateMutability": "nonpayable",
      "type": "function"
    },
    {
      "constant": false,
      "inputs": [
        {
          "name": "key",
          "type": "bytes32"
        },
        {
          "name": "hashValue",
          "type": "string"
        }
      ],
      "name": "setHash",
      "outputs": [],
      "payable": false,
      "stateMutability": "nonpayable",
      "type": "function"
    },
    {
      "inputs": [],
      "payable": false,
      "stateMutability": "nonpayable",
      "type": "constructor"
    }
  ],
  "bytecode": "0x6060604052341561000f57600080fd5b6104908061001e6000396000f300606060405260043610610057576000357c0100000000000000000000000000000000000000000000000000000000900463ffffffff1680631e541d191461005c5780633cf5040a146100fc578063985b2e0b1461019c575b600080fd5b341561006757600080fd5b610081600480803560001916906020019091905050610206565b6040518080602001828103825283818151815260200191508051906020019080838360005b838110156100c15780820151818401526020810190506100a6565b50505050905090810190601f1680156100ee5780820380516001836020036101000a031916815260200191505b509250505060405180910390f35b341561010757600080fd5b6101216004808035600019169060200190919050506102b6565b6040518080602001828103825283818151815260200191508051906020019080838360005b83811015610161578082015181840152602081019050610146565b50505050905090810190601f16801561018e5780820380516001836020036101000a031916815260200191505b509250505060405180910390f35b34156101a757600080fd5b61020460048080356000191690602001909190803590602001908201803590602001908080601f01602080910402602001604051908101604052809392919081815260200183838082843782019150505050505091905050610378565b005b60006020528060005260406000206000915090508054600181600116156101000203166002900480601f0160208091040260200160405190810160405280929190818152602001828054600181600116156101000203166002900480156102ae5780601f10610283576101008083540402835291602001916102ae565b820191906000526020600020905b81548152906001019060200180831161029157829003601f168201915b505050505081565b6102be6103ab565b60008083600019166000191681526020019081526020016000208054600181600116156101000203166002900480601f01602080910402602001604051908101604052809291908181526020018280546001816001161561010002031660029004801561036c5780601f106103415761010080835404028352916020019161036c565b820191906000526020600020905b81548152906001019060200180831161034f57829003601f168201915b50505050509050919050565b80600080846000191660001916815260200190815260200160002090805190602001906103a69291906103bf565b505050565b602060405190810160405280600081525090565b828054600181600116156101000203166002900490600052602060002090601f016020900481019282601f1061040057805160ff191683800117855561042e565b8280016001018555821561042e579182015b8281111561042d578251825591602001919060010190610412565b5b50905061043b919061043f565b5090565b61046191905b8082111561045d576000816000905550600101610445565b5090565b905600a165627a7a7230582001d3d3dff67a65e87598519ae0bea5fb7d0a02e83536a54f47ef63b58dfea2890029",
  "source": "pragma solidity ^0.4.11;\n// We have to specify what version of compiler this code will compile with\n\ncontract FileHash {\n\n  /* mapping field below is equivalent to an associative array or hash. \n  key < 32 bytes so its datatype is bytes32 and hashValue > 32 bytes \n  so its datatype is string */\n\n  mapping (bytes32 => string) public hashArr;\n\n  /* This is the constructor which will be called once when you\n  deploy the contract to the blockchain. Currently its an empty \n  */\n\n  function FileHash() { }\n\n  /* key can be either Gid, Filename and hashValue can be IPFS hash or \n  an hash generated by the asset app. hashArr stores the key mapped \n  to hashValue */\n\n  function setHash(bytes32 key, string hashValue) {\n    hashArr[key] = hashValue;\n  }\n\n  /* This function returns the hash value mapped to the key */\n  function getHash(bytes32 key) returns (string) {\n    return hashArr[key];\n  }\n}\n",
  "sourcePath": "/var/blockchain/asset/contracts/FileHash.sol",
  "compiler": {
    "name": "solc",
    "version": "0.4.18+commit.9cf6e910.Emscripten.clang"
  },
  "schemaVersion": "1.0.1",
  "updatedAt": "2017-12-05T11:25:40.481Z"
}